{
  "_format": "hh-sol-artifact-1",
  "contractName": "CryptovoxelsAccessControl",
  "sourceName": "contracts/CryptovoxelsAccessControl.sol",
  "abi": [
    {
      "inputs": [],
      "stateMutability": "nonpayable",
      "type": "constructor"
    },
    {
      "anonymous": false,
      "inputs": [
        {
          "indexed": true,
          "internalType": "address",
          "name": "previousOwner",
          "type": "address"
        },
        {
          "indexed": true,
          "internalType": "address",
          "name": "newOwner",
          "type": "address"
        }
      ],
      "name": "OwnershipTransferred",
      "type": "event"
    },
    {
      "anonymous": false,
      "inputs": [
        {
          "indexed": true,
          "internalType": "bytes32",
          "name": "role",
          "type": "bytes32"
        },
        {
          "indexed": true,
          "internalType": "bytes32",
          "name": "previousAdminRole",
          "type": "bytes32"
        },
        {
          "indexed": true,
          "internalType": "bytes32",
          "name": "newAdminRole",
          "type": "bytes32"
        }
      ],
      "name": "RoleAdminChanged",
      "type": "event"
    },
    {
      "anonymous": false,
      "inputs": [
        {
          "indexed": true,
          "internalType": "bytes32",
          "name": "role",
          "type": "bytes32"
        },
        {
          "indexed": true,
          "internalType": "address",
          "name": "account",
          "type": "address"
        },
        {
          "indexed": true,
          "internalType": "address",
          "name": "sender",
          "type": "address"
        }
      ],
      "name": "RoleGranted",
      "type": "event"
    },
    {
      "anonymous": false,
      "inputs": [
        {
          "indexed": true,
          "internalType": "bytes32",
          "name": "role",
          "type": "bytes32"
        },
        {
          "indexed": true,
          "internalType": "address",
          "name": "account",
          "type": "address"
        },
        {
          "indexed": true,
          "internalType": "address",
          "name": "sender",
          "type": "address"
        }
      ],
      "name": "RoleRevoked",
      "type": "event"
    },
    {
      "inputs": [],
      "name": "DEFAULT_ADMIN_ROLE",
      "outputs": [
        {
          "internalType": "bytes32",
          "name": "",
          "type": "bytes32"
        }
      ],
      "stateMutability": "view",
      "type": "function"
    },
    {
      "inputs": [
        {
          "internalType": "address",
          "name": "account",
          "type": "address"
        }
      ],
      "name": "addMember",
      "outputs": [],
      "stateMutability": "nonpayable",
      "type": "function"
    },
    {
      "inputs": [
        {
          "internalType": "bytes32",
          "name": "role",
          "type": "bytes32"
        }
      ],
      "name": "getRoleAdmin",
      "outputs": [
        {
          "internalType": "bytes32",
          "name": "",
          "type": "bytes32"
        }
      ],
      "stateMutability": "view",
      "type": "function"
    },
    {
      "inputs": [
        {
          "internalType": "bytes32",
          "name": "role",
          "type": "bytes32"
        },
        {
          "internalType": "address",
          "name": "account",
          "type": "address"
        }
      ],
      "name": "grantRole",
      "outputs": [],
      "stateMutability": "nonpayable",
      "type": "function"
    },
    {
      "inputs": [
        {
          "internalType": "bytes32",
          "name": "role",
          "type": "bytes32"
        },
        {
          "internalType": "address",
          "name": "account",
          "type": "address"
        }
      ],
      "name": "hasRole",
      "outputs": [
        {
          "internalType": "bool",
          "name": "",
          "type": "bool"
        }
      ],
      "stateMutability": "view",
      "type": "function"
    },
    {
      "inputs": [
        {
          "internalType": "address",
          "name": "account",
          "type": "address"
        }
      ],
      "name": "isMember",
      "outputs": [
        {
          "internalType": "bool",
          "name": "",
          "type": "bool"
        }
      ],
      "stateMutability": "view",
      "type": "function"
    },
    {
      "inputs": [],
      "name": "leave",
      "outputs": [],
      "stateMutability": "nonpayable",
      "type": "function"
    },
    {
      "inputs": [],
      "name": "owner",
      "outputs": [
        {
          "internalType": "address",
          "name": "",
          "type": "address"
        }
      ],
      "stateMutability": "view",
      "type": "function"
    },
    {
      "inputs": [
        {
          "internalType": "address",
          "name": "account",
          "type": "address"
        }
      ],
      "name": "removeMember",
      "outputs": [],
      "stateMutability": "nonpayable",
      "type": "function"
    },
    {
      "inputs": [],
      "name": "renounceOwnership",
      "outputs": [],
      "stateMutability": "nonpayable",
      "type": "function"
    },
    {
      "inputs": [
        {
          "internalType": "bytes32",
          "name": "role",
          "type": "bytes32"
        },
        {
          "internalType": "address",
          "name": "account",
          "type": "address"
        }
      ],
      "name": "renounceRole",
      "outputs": [],
      "stateMutability": "nonpayable",
      "type": "function"
    },
    {
      "inputs": [
        {
          "internalType": "bytes32",
          "name": "role",
          "type": "bytes32"
        },
        {
          "internalType": "address",
          "name": "account",
          "type": "address"
        }
      ],
      "name": "revokeRole",
      "outputs": [],
      "stateMutability": "nonpayable",
      "type": "function"
    },
    {
      "inputs": [
        {
          "internalType": "bytes4",
          "name": "interfaceId",
          "type": "bytes4"
        }
      ],
      "name": "supportsInterface",
      "outputs": [
        {
          "internalType": "bool",
          "name": "",
          "type": "bool"
        }
      ],
      "stateMutability": "view",
      "type": "function"
    },
    {
      "inputs": [
        {
          "internalType": "address",
          "name": "newOwner",
          "type": "address"
        }
      ],
      "name": "transferOwnership",
      "outputs": [],
      "stateMutability": "nonpayable",
      "type": "function"
    }
  ],
  "bytecode": "0x608060405234801561001057600080fd5b5061001a3361002a565b61002560003361007c565b610128565b600180546001600160a01b038381166001600160a01b0319831681179093556040519116919082907f8be0079c531659141344cd1fd0a4f28419497f9722a3daafe3b4186f6b6457e090600090a35050565b610086828261008a565b5050565b6000828152602081815260408083206001600160a01b038516845290915290205460ff16610086576000828152602081815260408083206001600160a01b03851684529091529020805460ff191660011790556100e43390565b6001600160a01b0316816001600160a01b0316837f2f8788117e7eff1d82e926ec794901d17c78024a50270940304540a733656f0d60405160405180910390a45050565b610b35806101376000396000f3fe608060405234801561001057600080fd5b50600436106100ea5760003560e01c806391d148541161008c578063ca6d56dc11610066578063ca6d56dc146101d4578063d547741f146101e7578063d66d9e19146101fa578063f2fde38b1461020257600080fd5b806391d14854146101a6578063a217fddf146101b9578063a230c524146101c157600080fd5b80632f2ff15d116100c85780632f2ff15d1461015d57806336568abe14610170578063715018a6146101835780638da5cb5b1461018b57600080fd5b806301ffc9a7146100ef5780630b1ca49a14610117578063248a9ca31461012c575b600080fd5b6101026100fd3660046108f1565b610215565b60405190151581526020015b60405180910390f35b61012a610125366004610937565b61024c565b005b61014f61013a366004610952565b60009081526020819052604090206001015490565b60405190815260200161010e565b61012a61016b36600461096b565b6102ad565b61012a61017e36600461096b565b6102d8565b61012a610356565b6001546040516001600160a01b03909116815260200161010e565b6101026101b436600461096b565b6103bc565b61014f600081565b6101026101cf366004610937565b6103e5565b61012a6101e2366004610937565b6103f1565b61012a6101f536600461096b565b61044a565b61012a6104dc565b61012a610210366004610937565b6104e7565b60006001600160e01b03198216637965db0b60e01b148061024657506301ffc9a760e01b6001600160e01b03198316145b92915050565b610255336103e5565b61029f5760405162461bcd60e51b81526020600482015260166024820152752932b9ba3934b1ba32b2103a379036b2b6b132b9399760511b60448201526064015b60405180910390fd5b6102aa60008261044a565b50565b6000828152602081905260409020600101546102c981336105af565b6102d38383610613565b505050565b6001600160a01b03811633146103485760405162461bcd60e51b815260206004820152602f60248201527f416363657373436f6e74726f6c3a2063616e206f6e6c792072656e6f756e636560448201526e103937b632b9903337b91039b2b63360891b6064820152608401610296565b6103528282610697565b5050565b6001546001600160a01b031633146103b05760405162461bcd60e51b815260206004820181905260248201527f4f776e61626c653a2063616c6c6572206973206e6f7420746865206f776e65726044820152606401610296565b6103ba60006106fc565b565b6000918252602082815260408084206001600160a01b0393909316845291905290205460ff1690565b600061024681836103bc565b6103fa336103e5565b61043f5760405162461bcd60e51b81526020600482015260166024820152752932b9ba3934b1ba32b2103a379036b2b6b132b9399760511b6044820152606401610296565b6102aa6000826102ad565b60008281526020819052604090206001015461046681336105af565b6001546001600160a01b03838116911614156104d25760405162461bcd60e51b815260206004820152602560248201527f43616e74207265766f6b6520726f6c65206f66206f776e6572206f6620636f6e6044820152641d1c9858dd60da1b6064820152608401610296565b6102d38383610697565b6103ba6000336102d8565b6001546001600160a01b031633146105415760405162461bcd60e51b815260206004820181905260248201527f4f776e61626c653a2063616c6c6572206973206e6f7420746865206f776e65726044820152606401610296565b6001600160a01b0381166105a65760405162461bcd60e51b815260206004820152602660248201527f4f776e61626c653a206e6577206f776e657220697320746865207a65726f206160448201526564647265737360d01b6064820152608401610296565b6102aa816106fc565b6105b982826103bc565b610352576105d1816001600160a01b0316601461074e565b6105dc83602061074e565b6040516020016105ed9291906109c7565b60408051601f198184030181529082905262461bcd60e51b825261029691600401610a3c565b61061d82826103bc565b610352576000828152602081815260408083206001600160a01b03851684529091529020805460ff191660011790556106533390565b6001600160a01b0316816001600160a01b0316837f2f8788117e7eff1d82e926ec794901d17c78024a50270940304540a733656f0d60405160405180910390a45050565b6106a182826103bc565b15610352576000828152602081815260408083206001600160a01b0385168085529252808320805460ff1916905551339285917ff6391f5c32d9c69d2a47ea670b442974b53935d1edc7fd64eb21e047a839171b9190a45050565b600180546001600160a01b038381166001600160a01b0319831681179093556040519116919082907f8be0079c531659141344cd1fd0a4f28419497f9722a3daafe3b4186f6b6457e090600090a35050565b6060600061075d836002610a85565b610768906002610aa4565b67ffffffffffffffff81111561078057610780610abc565b6040519080825280601f01601f1916602001820160405280156107aa576020820181803683370190505b509050600360fc1b816000815181106107c5576107c5610ad2565b60200101906001600160f81b031916908160001a905350600f60fb1b816001815181106107f4576107f4610ad2565b60200101906001600160f81b031916908160001a9053506000610818846002610a85565b610823906001610aa4565b90505b600181111561089b576f181899199a1a9b1b9c1cb0b131b232b360811b85600f166010811061085757610857610ad2565b1a60f81b82828151811061086d5761086d610ad2565b60200101906001600160f81b031916908160001a90535060049490941c9361089481610ae8565b9050610826565b5083156108ea5760405162461bcd60e51b815260206004820181905260248201527f537472696e67733a20686578206c656e67746820696e73756666696369656e746044820152606401610296565b9392505050565b60006020828403121561090357600080fd5b81356001600160e01b0319811681146108ea57600080fd5b80356001600160a01b038116811461093257600080fd5b919050565b60006020828403121561094957600080fd5b6108ea8261091b565b60006020828403121561096457600080fd5b5035919050565b6000806040838503121561097e57600080fd5b8235915061098e6020840161091b565b90509250929050565b60005b838110156109b257818101518382015260200161099a565b838111156109c1576000848401525b50505050565b7f416363657373436f6e74726f6c3a206163636f756e74200000000000000000008152600083516109ff816017850160208801610997565b7001034b99036b4b9b9b4b733903937b6329607d1b6017918401918201528351610a30816028840160208801610997565b01602801949350505050565b6020815260008251806020840152610a5b816040850160208701610997565b601f01601f19169190910160400192915050565b634e487b7160e01b600052601160045260246000fd5b6000816000190483118215151615610a9f57610a9f610a6f565b500290565b60008219821115610ab757610ab7610a6f565b500190565b634e487b7160e01b600052604160045260246000fd5b634e487b7160e01b600052603260045260246000fd5b600081610af757610af7610a6f565b50600019019056fea26469706673582212200ee787e4435bdee71d6ec924d0f5101c8f4ba887de041d65ddbdef8bb1e25c5b64736f6c634300080c0033",
  "linkReferences": {},
  "deployedLinkReferences": {}
}